:020000040000FA
:060800007EEF11F0120072
:060808001CEF04F01200D9
:06081800AAEF05F012003A
:06082A000100382300006C
:0808300080000000120000002E
:08083800DACFE4FFE2CFDAFFA2
:10084000E9CFE4FFEACFE4FFF6CFE4FFF7CFE4FF20
:10085000F5CFE4FFF3CFE4FFF4CFE4FFFACFE4FFFA
:1008600000EE00F0140EE80403E3EECFE4FFFBD744
:1008700000EE18F0040EE80403E3EECFE4FFFBD72C
:10088000E652F2A4C8D0D59EF80ED76E790ED66E79
:10089000D58E0101602B000E6123622363230101C9
:1008A000642B000E6523662367230101682B000E6D
:1008B00069236A236B2301016C2B000E6D236E23C9
:1008C0006F230101042B000E05230101DB2B000E19
:1008D000DC23320E0101D35D02E20101D32B0101C1
:1008E0000051030A57E0010A2AE0030A01E091D00F
:1008F0008050100B100A01E0010E010806E1010111
:10090000016B026B0101002B19D00101012B000EBC
:1009100002230101F40ED8800155010E02550EE2AA
:100920000101016B026B0101010E061901E1075182
:1009300005E101017B5101E06DD0897E6BD080A87B
:1009400003D00101000725D00101012B000E022375
:100950000101320ED8800155000E02551AE2020E36
:100960000101061901E107510DE0010E010106190F
:1009700001E1075101E00BD0899E030E0101066FD2
:10098000076B05D0040E0101066F076B00D0010153
:10099000002B40D0040E0101061901E1075111E0BE
:1009A000030E0101061901E1075101E01BD080A8E7
:1009B00007D0020E0101066F076B0101010E006FE7
:1009C00027D0000EE66EE66A000EE66EE66A71DB80
:1009D000E552E552E552E552899E899C8A908A98B3
:1009E000FF0016D080A804D00101010E006F0FD0C7
:1009F0000101012B000E02230101640ED880015574
:100A0000000E025504E20101016B026B897E00D0E9
:100A100001D000D0F2949EA671D00101D36B0101E8
:100A2000D76B0101D8510F0A64E0010A5EE0030AA6
:100A300044E0010A39E0070A2EE0080A23E0010A2F
:100A40000AE0030A01E058D0D6C1C9FF0101D46B06
:100A50000101D82B52D0C5AC03D0D8C1D7F111D0E9
:100A60000101D451D42BEA6AA30FE96E010EEA22E8
:100A7000EF50C96E0101D5510101D45D02E10101C0
:100A8000D82B3BD0C5AC03D0D8C1D7F103D0C58497
:100A90000101D86B32D0010E0101D611C96E0101DE
:100AA000D46B0101D82B29D0C5AC03D0D8C1D7F164
:100AB00003D0C5860101D82B20D00101D451D42BFD
:100AC000EA6AA30FE96E010EEA22C9CFEFFF010126
:100AD000D5510101D45D04E2C59A0101D80703D0C4
:100AE000C58A0101D82BC58808D0C5840101D82B3F
:100AF00004D00101D86B01D000D09E96A1A606D0EB
:100B0000A196400E0101D8110101D76FE55200EE08
:100B10001BF0040EE80403E3E5CFEDFFFBD700EE86
:100B200013F0140EE80403E3E5CFEDFFFBD7E5CFA8
:100B3000FAFFE5CFF4FFE5CFF3FFE5CFF5FFE5CF13
:100B4000F7FFE5CFF6FFE5CFEAFFE5CFE9FFE5CF19
:100B5000DAFF1100D8CFE4FFE0CFE4FFE46EDACF94
:100B6000E4FFE2CFDAFFE9CFE4FFEACFE4FFE652A9
:100B7000D9CFE6FFE1CFD9FF050EE1269EAC4ED0DE
:100B80009E9C010EC4CFDBFFC350DF6EDECF16F09C
:100B9000DDCF17F001010351E96EEA6AD890E9361A
:100BA000EA36080EE926010EEA221650EE24146EEB
:100BB0001750EE20156E010E0F0B05E0D890153280
:100BC0001432E806FBE1020E14C0DBFF030E15C071
:100BD000DBFF01010351E96EEA6AD890E936EA3693
:100BE000080EE926010EEA22020EDBCFEEFF030E0D
:100BF000DBCFEDFF0A0E146E0101032B010103513F
:100C0000D880145402E30101036B01010351EA6A25
:100C1000800FE96E000EEA22EF50C26E9EAA74D0D9
:100C2000ABA404D0040EAECFDBFF6ED0ABA203D0DA
:100C3000AB98AB8869D0040EAECFDBFF0101020E8A
:100C4000061901E1075148E1040EDB500D0844E1AB
:100C5000E10E0101DF25E96E010E0101E021EA6EDE
:100C6000EF50520839E1010E0101EA6ADF25E96E11
:100C7000E051EA22E10EE926010EEA22EF50650872
:100C80002BE1020E0101EA6ADF25E96EE051EA225A
:100C9000E10EE926010EEA22EF5073081DE1030E72
:100CA0000101EA6ADF25E96EE051EA22E10EE92658
:100CB000010EEA22EF5065080FE1040E0101EA6A15
:100CC000DF25E96EE051EA22E10EE926010EEA2273
:100CD000EF50740801E1FF00E10E0101DD25E96E2E
:100CE000010E0101DE21EA6E040EDBCFEFFF0101F0
:100CF000DD2B000EDE230101100EDD5D000EDE593E
:100D000003E30101DD6BDE6B050EE15C02E2E16AEB
:100D1000E552E16EE552E7CFD9FFE552E5CFEAFFB4
:100D2000E5CFE9FFE5CFDAFFE550E5CFE0FFE5CF1E
:100D3000D8FF1000D9CFE6FFE1CFD9FF030EE1269F
:100D40000101066B076B006B016B026B010EDB6A26
:100D5000020EDB6A010EDBCF18F0020EDBCF19F0BA
:100D6000D890195004E6100E185C000E19581AE2BB
:100D7000010EDBCFE9FF020EDBCFEAFFD890E936A8
:100D8000EA36D890E936EA36200EE926010EEA2244
:100D9000EE6AEE6AEE6AEE6A010EDB2A020EDAE312
:100DA000DB2AD8D7010EDB6A020EDB6A010EDBCF2D
:100DB00018F0020EDBCF19F0D890195004E6040E9B
:100DC000185C000E19581AE2010EDBCFE9FF020E83
:100DD000DBCFEAFFD890E936EA36D890E936EA3632
:100DE000600EE926010EEA22EE6AEE6AEE6AEE6A0B
:100DF000010EDB2A020EDAE3DB2AD8D7010EDB6A0A
:100E0000020EDB6A010EDBCF18F0020EDBCF19F009
:100E1000D890195004E60A0E185C000E195811E219
:100E2000010EDBCFE9FF020EDBCFEAFF710EE926F0
:100E3000010EEA22010EEF6EDB2A020EE3E3DB2A4B
:100E4000E1D701011C6B1D6B1E6B1F6B036B7B6B72
:100E50007C6B896A3F0EDF6EDF50926E8A6A1F0ECE
:100E6000DF6E00018E1DDF16E66A080EE66EE66A8A
:100E700030DAE552E552E5520101796B00018A1D35
:100E8000DF16E66A090EE66EE66A23DAE552E552F7
:100E9000E55201017A6BDF50936E180E8B6E800E57
:100EA000946EF00ED36EC00E9B6E010ED56EF80ED2
:100EB000D76E790ED66ED58EF294F28AF184B00E8A
:100EC000B16EA092A192A2929D92010ECA6ECC68C0
:100ED000CB68CA84000EE66EE66AE66EE66A79D8EA
:100EE000E552E552E552E5529F9C9D8CBE0EC06EC8
:100EF000020EC16E01010351EA6A800FE96E000E15
:100F0000EA22EF50C26E21EC0BF0DBEC0FF0D09C2C
:100F1000D08EF28EF28C8A9E97EC10F0BE0E186E78
:100F2000220E196E1A6A18C0E6FFE66E1AC0E6FFB6
:100F300076EC0BF0E552E552E5526AEC0DF0010E4D
:100F40000101066F076B006F8050100B100A01E063
:100F5000010E010804E1010E066F076BF5D7010EC3
:100F6000706F030EE15C02E2E16AE552E16EE55268
:100F7000E7CFD9FF1200DEDEBEEC0BF0000902E085
:100F8000C7EC0BF0020E0101061901E1075116E052
:100F9000010E061901E1075105E0030E0619ECE107
:100FA0000751EAE1640E045D000E0559E5E3046BA8
:100FB000056B7BA1E1D787EC0DF0DED7899E8AEC2B
:100FC00011F0898E0101020E0619D6E10751D4E114
:100FD000F9D7D9CFE6FFE1CFD9FF040EE126FB0E0A
:100FE000DBCF18F0FC0EDBCF19F0060ED8901836C8
:100FF0001936E804FBE118C0DEFF19C0DDFFFD0E65
:10100000DBCF18F0FE0EDBCF19F0060ED8901836A5
:101010001936E804FBE1020E18C0DBFF030E19C00D
:10102000DBFF010EDB50BE6E030EDB50BB6EDF50EC
:10103000E840E8403F0B300B0C09BD6E020EDB4070
:10104000E8403F0B300B0C09BA6E040EE15C02E283
:10105000E16AE552E16EE552E7CFD9FF1200D9CF40
:10106000E6FFE1CFD9FF020EE126F29A0101046BFF
:10107000056BF28AF29A04C1DEFF05C1DDFFF28A38
:10108000DECF18F0DDCF19F0FD0EDBCF1AF0FE0E2B
:10109000DBCF1BF01A50185C1B501958EBE3020E03
:1010A000E15C02E2E16AE552E16EE552E7CFD9FF89
:1010B0001200D9CFE6FFE1CFD9FF040EE1261CC113
:1010C00018F01DC119F0FD0EDB50181811E1FE0ECD
:1010D000DB5019180DE11EC11AF01FC11BF0FB0EE9
:1010E000DB501A1805E1FC0EDB501B1801E1E7D0BC
:1010F000000EE66EE66AE66EE66A6BDFE552E552E2
:10110000E552E552070E086E096AFB0EDBCF0DF0C3
:10111000FC0EDBCF0EF0FEEC10F0020E06C0DBFF83
:10112000030E07C0DBFF020EDBCF18F0030EDBCF90
:1011300019F019340FE218500008000E19540AE291
:10114000D950020FE96EDACFEAFF640EEE26000EE8
:10115000ED2213D0020EDBCF18F0030EDBCF19F017
:101160000001800E191409E0D950020FE96EDACFA0
:10117000EAFF640EEE5E000EED5A070E086E096A75
:10118000FD0EDBCF0DF0FE0EDBCF0EF0FEEC10F00F
:1011900006C0DEFF07C0DDFFDECF18F0DDCF19F09F
:1011A00019340AE218500008000E195405E2640EC2
:1011B000DE26000EDD2210D0DECF18F0DDCF19F0D4
:1011C0000001800E191408E0D9CFE9FFDACFEAFF59
:1011D000640EEE5E000EED5AFB0EDBCF18F0FC0E37
:1011E000DBCF19F0193408E218500008000E19542A
:1011F00003E28A8C8A9A1BD0FB0EDBCF18F0FC0E20
:10120000DBCF19F00001800E19140CE08A8A8A9C49
:10121000D950020FE96EDACFEAFFEE6CEF1E000E36
:10122000ED2205D00101705102E08A8C8A8AFD0E00
:10123000DBCF18F0FE0EDBCF19F0193408E218509E
:101240000008000E195403E28B8A8B901AD0FD0E11
:10125000DBCF18F0FE0EDBCF19F00001800E191461
:101260000BE08B808B9AD9CFE9FFDACFEAFFEE6CE7
:10127000EF1E000EED2205D00101705102E08B8AB5
:101280008B80020EDBCFE6FF030EDBCFE6FFDECF67
:10129000E6FFDDCFE6FF9DDEE552E552E552E55281
:1012A000FD0EDBCF1CF1FE0EDBCF1DF1FB0EDBCF05
:1012B0001EF1FC0EDBCF1FF10101010E706F040E59
:1012C000E15C02E2E16AE552E16EE552E7CFD9FF67
:1012D0001200D9CFE6FFE1CFD9FFFD0EDBCF08F03A
:1012E000FE0EDBCF09F0090E081801E1095001E1FB
:1012F00074D0080E081801E1095067E0070E0818BD
:1013000001E109505AE0060E081801E109504DE0CC
:10131000050E081801E1095040E0040E081801E12B
:10132000095033E0030E081801E1095026E0020ECF
:10133000081801E1095019E0010E081801E10950EF
:101340000CE0085050E109504EE1FC0EDB50E8B0D3
:101350008980E8B048D0899046D0FC0EDB50E8B0D8
:101360008982E8B040D089923ED0FC0EDB50E8B0D4
:101370008984E8B038D0899436D0FC0EDB50E8B0D0
:101380008986E8B030D089962ED0FC0EDB50E8B0CC
:10139000898AE8B028D0899A26D0FC0EDB50E8B0C4
:1013A0008A84E8B020D08A941ED0FC0EDB50E8B0CE
:1013B0008A86E8B018D08A9616D0FC0EDB50E8B0CA
:1013C0008A82E8B010D08A920ED0FC0EDB50E8B0D2
:1013D0008A88E8B008D08A9806D0FC0EDB50E8B0C6
:1013E0008A80E8A08A90E552E7CFD9FF1200D9CFD2
:1013F000E6FFE1CFD9FFE652DF6AFD0EDBCF08F052
:10140000FE0EDBCF09F0090E081801E109504FE08C
:10141000080E081801E1095045E0070E081801E11F
:1014200009503CE0060E081801E1095033E0050EB2
:10143000081801E109502AE0040E081801E10950DA
:1014400021E0030E081801E1095018E0020E081807
:1014500001E109500FE0010E081801E1095006E012
:10146000085028E1095026E1895022D08950020B0A
:1014700020E01BD08950040B1CE017D08950080BCA
:1014800018E013D08950200B14E00FD08A50040BC1
:1014900010E00BD08A50080B0CE007D08A50020BEA
:1014A00008E003D08A50100B04E0010E02D08A50ED
:1014B000010BDF6EDF50E552E552E7CFD9FF120096
:1014C000D9CFE6FFE1CFD9FFFD0EDBCF08F0FE0E4E
:1014D000DBCF09F0030E081801E1095026E0020EE7
:1014E000081801E1095019E0010E081801E109503E
:1014F0000CE0085020E109501EE1FC0EDB50E8B082
:10150000898EE8B018D0899E16D0FC0EDB50E8B06A
:10151000898CE8B010D0899C0ED0FC0EDB50E8B06E
:101520008A80E8B008D08A9006D0FC0EDB50E8B084
:101530008A88E8A08A98E552E7CFD9FF1200D9CF70
:10154000E6FFE1CFD9FFE652DF6AFD0EDBCF08F000
:10155000FE0EDBCF09F0030E081801E109501BE075
:10156000020E081801E1095012E0010E081801E10D
:10157000095008E0085014E1095012E18950800B2D
:1015800008E003D08950400B04E0010E02D08A50DD
:10159000010BDF6E05D08A50100B01E0010EDF6EEB
:1015A000DF50E552E552E7CFD9FF1200D9CFE6FF71
:1015B000E1CFD9FFF29AFE0EDB50040DF3CFE9FF25
:1015C000F4CFEAFF600EE926010EEA22EE6AEE6A27
:1015D000EE6AEE6AF28AE552E7CFD9FF1200D9CF60
:1015E000E6FFE1CFD9FF040EE126F29AFE0EDB50B2
:1015F000040DF3CFE9FFF4CFEAFF600EE926010EF8
:10160000EA22EECFDFFF010EEECFDBFF020EEECFC0
:10161000DBFF030EEECFDBFFF28ADECF06F0DECF7C
:1016200007F0DECF08F0DDCF09F0DD52DD52040E09
:10163000E15C02E2E16AE552E16EE552E7CFD9FFF3
:02164000120096
:0E1642009D9A9E9A040EAC6E800EAB6EB8960A
:10165000B06A670EAF6E240EAC6E900EAB6E0101D9
:10166000DD6BDE6B100EDD5D000EDE590BE2E10E70
:10167000DD25E96E010EDE21EA6EEF6ADD2B000E3C
:10168000DE23F0D7000EDF6FE06BDD6FDE6B9F9A1D
:101690009E9A9D8A1200D9CFE6FFE1CFD9FFACA276
:1016A000FED7FE0EDB50AD6EE552E7CFD9FF12003C
:1016B000D9CFE6FFE1CFD9FFFD0EDBCFE9FFFE0E6C
:1016C000DBCFEAFFEF500EE0FD0EDBCFE9FFDB2AB8
:1016D000FE0EDBCFEAFF01E3DB2AEF50E66EDBDF35
:1016E000E552EAD7E552E7CFD9FF1200D9CFE6FF9E
:1016F000E1CFD9FFFC0EDBCFF6FFFD0EDBCFF7FF0E
:10170000FE0EDBCFF8FF0800F55016E0D950FC0FB5
:10171000E96EFF0EDA20EA6EEFCFF6FFEE2AEFCF8A
:10172000F7FF000EEE22EFCFF8FFEE220800F55093
:10173000E66EB1DFE552DED7E552E7CFD9FF120002
:10174000D9CFE6FFE1CFD9FFE652E10E0101DF2557
:10175000E96E010EE021EA6EEFCFDFFFDF2B000E16
:10176000E023100EDF5D000EE05902E3DF6BE06B5B
:10177000DF50E552E552E7CFD9FF12000101DD51FC
:10178000DF1904E1DE51E01901E1000C010CD9CFB1
:10179000E6FFE1CFD9FF190EE126140EDB6A010145
:1017A000DB6BDC6B0101640ED880DB55000EDC5571
:1017B00001E234D0E3DF000901E1F4D7C1DFE76ED5
:1017C000110EE7CFDBFF110EDBCF18F0200EE76E16
:1017D0001818E8AE02D0E73402D0E750185C01E2F6
:1017E0001DD0100E186E140EDB50185C01E216D0DE
:1017F000D9CF18F0DACF19F0140EDBCFF3FFDB2AC4
:10180000F3500F011824E96E000E1920EA6E110E34
:10181000DBCFEFFF0101DB6BDC6BC4D7D9CF18F056
:10182000DACF19F0140EDB500F011824E96E000E08
:101830001920EA6EEF6A140EDB5001E1D1D0DF50BF
:10184000520A01E1C6D0040A01E1C1D01B0A01E13C
:1018500083D0020A62E0030A41E0050A25E03A0A61
:1018600022E0200A01E0B7D0010EDB50310A10E07F
:10187000010A01E017D0030EDB50310804E1010139
:101880007B81B8D804D001017B9101017C6B0AD027
:10189000030EDB50310803E101017B8302D001011B
:1018A0007B9300D09DD09CD0010EDB5044080EE10C
:1018B000300EF36E030EDBCFF4FFF350F45C06E35F
:1018C000390E186E030EDB50185C01E289D0030E4E
:1018D000DB50D00F01017C6F8DD882D0010EDB5020
:1018E000D00FE76E120EE7CFDBFF030EDB50D00FF9
:1018F000E76E130EE7CFDBFF01017C510DE1130E04
:10190000DBCFE6FF120EDBCFE6FFE66A60EC0AF003
:10191000E552E552E55200D063D0010EDB50D00F06
:10192000E76E120EE7CFDBFF030EDB50D00FE76E42
:10193000130EE7CFDBFF01017C510DE1130EDBCF6E
:10194000E6FF120EDBCFE6FFE66A69EC09F0E5522E
:10195000E552E55200D044D0030EE66ED950020F96
:10196000E66E000EDA20E66EA0DAE552E552E552A8
:10197000150EF3CFDBFF160EF4CFDBFF030EE66E82
:10198000D950060FE66E000EDA20E66E8EDAE552CA
:10199000E552E552170EF3CFDBFF180EF4CFDBFF55
:1019A00001017C5113E1170EDBCFE6FF180EDBCFF0
:1019B000E6FF150EDBCFE6FF160EDBCFE6FF59EC98
:1019C00008F0E552E552E552E55200D009D082D840
:1019D00007D0FF0005D0150EE66E5DDEE55200D0A3
:1019E000190EE15C02E2E16AE552E16EE552E7CFF1
:1019F000D9FF1200D9CFE6FFE1CFD9FF090EE126CA
:101A0000D950010FE96EDACFEAFF690EEE6E6F0E64
:101A1000EE6E5B0EEE6E300EEE6E5D0EEE6E3D0EF9
:101A2000EE6E310EEE6EEE6A186A01017C51185CA2
:101A300039E3DF6A0A0EDF5C23E2300EDF24E76E53
:101A4000040EE7CFDBFFDF50EA6A710FE96E010E8B
:101A5000EA22EF50300FE76E070EE7CFDBFF080EEC
:101A6000DB6AD950010FE66E000EDA20E66E20DE4A
:101A7000E552E5522C0EE66E0EDEE552DF2ADAD78D
:101A8000D70E186E220E196E1A6A18C0E6FFE66E9F
:101A90001AC0E6FF2BDEE552E552E5522C0EE66E4B
:101AA000FADDE552D40E186E220E196E1A6A18C0AD
:101AB000E6FFE66E1AC0E6FF19DEE552E552E55292
:101AC000090EE15C02E2E16AE552E16EE552E7CF20
:101AD000D9FF1200C10E186E220E196E1A6A18C0B4
:101AE000E6FFE66E1AC0E6FF01DEE552E552E5527A
:101AF000D40E186E220E196E1A6A18C0E6FFE66E32
:101B00001AC0E6FFF3DDE552E552E5521200D9CFE7
:101B1000E6FFE1CFD9FF130EE126186A01017C51DF
:101B2000185C59E3020EDB6A0A0EF36E020EDBCF7D
:101B3000F4FFF350F45C39E2020EDB50EA6A710FF5
:101B4000E96E010EEA22EF5011E1020EDBCFE6FF53
:101B5000E66AF7EC09F0E552E552000903E1186A7C
:101B6000196A12D01868030E196E0ED0020EEA6AB6
:101B7000DB34FE0BEA36E96E080EE926010EEA2296
:101B8000EECF18F0EFCF19F0020EEA6ADB34FE0B4D
:101B9000EA36E96E7D0EE926010EEA2218C0EEFF54
:101BA00019C0EDFF020EDB2ABFD7000EE66EE66A13
:101BB0009FEC0AF0E552E552E76E110EE7CFDBFF2E
:101BC000010EE66EE66A9FEC0AF0E552E552E76E1A
:101BD000120EE7CFDBFF430EF36E060EF3CFDBFFF3
:101BE0004E0EF36E070EF3CFDBFF020EDB6A0A0E1A
:101BF000F36E020EDBCFF4FFF350F45C01E3C0D0D0
:101C0000020EF36E030EF3CFDBFF020EDB5009086A
:101C10001FE1D950060F186E030EDBCFF3FFDB2A4E
:101C2000F3500F011824E96E000EDA20EA6E310E2F
:101C3000EF6ED950060F186E030EDBCFF3FFDB2AD1
:101C4000F3501824E96E000EDA20EA6E300E14D03C
:101C5000020EDB50310FE66ED950060F186E030EE0
:101C6000DBCFF3FFDB2AF3500F011824E96E000EDF
:101C7000DA20EA6EE552E750EF6ED950060F186E83
:101C8000DACF19F0030EDBCFF3FFDB2AF350182471
:101C9000E96E000EDA20EA6E3D0EEF6E020EEA6A81
:101CA000DB34FE0BEA36E96E7D0EE926010EEA22F0
:101CB000EECFDEFFEDCFDDFF040EF36EDB6E186AB4
:101CC000DB50185C3EE2DECF1AF0DDCF1BF00A0ECF
:101CD0000D6E0E6A1AC008F01BC009F049EC11F035
:101CE00004C01AF005C01BF0300E0424E66ED95073
:101CF000060F186EDACF19F0040EDBCFE6FF030EE5
:101D0000DB50E552E724FF0F0F011824E96E000EA7
:101D1000DA20EA6EE552E750EF6ED9CFE9FFDACF6D
:101D2000EAFF0A0E0D6E0E6AEECF08F0EDCF09F055
:101D300049EC11F008C0EEFF09C0EDFF040EDB0610
:101D4000BED7D950060F186EDACF19F0030EDB504C
:101D5000040F0F011824E96E000EDA20EA6EEF6A14
:101D6000D950060FE66E000EDA20E66EA1DCE552D1
:101D7000E5522C0EE66E8FDCE552020EDB2A37D7D9
:101D8000030EDB6AD950060F186E030EDBCFF3FF8C
:101D9000DB2AF3500F011824E96E000EDA20EA6EF8
:101DA0004C0EEF6ED950060F186E030EDBCFF3FF0B
:101DB000DB2AF3501824E96E000EDA20EA6E450E95
:101DC000EF6ED950060F186E030EDBCFF3FFDB2A40
:101DD000F3501824E96E000EDA20EA6E440EEF6E1E
:101DE000D950060F186E030EDBCFF3FFDB2AF3503A
:101DF0001824E96E000EDA20EA6E3D0EEF6E110E29
:101E0000DB50300FE66ED950060F186E030EDBCF95
:101E1000F3FFDB2AF3501824E96E000EDA20EA6E95
:101E2000E552E750EF6E120EDB50300FE66ED950E0
:101E3000060F186E030EDBCFF3FFDB2AF3501824D6
:101E4000E96E000EDA20EA6EE552E750EF6ED950E7
:101E5000060F186EDACF19F0030EDB501824E96E66
:101E6000000EDA20EA6EEF6AD950060FE66E000E19
:101E7000DA20E66E1DDCE552E552D40E186E220E15
:101E8000196E1A6A18C0E6FFE66E1AC0E6FF2EDC6D
:101E9000E552E552E552130EE15C02E2E16AE552D9
:101EA000E16EE552E7CFD9FF1200D9CFE6FFE1CFCF
:101EB000D9FF060EE126010EF36E040EF3CFDBFF11
:101EC000050EDB6A020EDB6A030EDB6ADF6AFC0EBC
:101ED000DB50DF5C43E2FD0EDBCFE9FFDB2AFE0EC9
:101EE000DBCFEAFF01E3DB2A010EEFCFDBFFDB50A4
:101EF00035E0010EDB502D0805E1040EDB68050E10
:101F0000DB682AD0300EF36E010EDBCFF4FFF35006
:101F1000F45C22E3390E186E010EDB50185C1CE3F2
:101F2000D950020FE96EDACFEAFF0A0EEC02F3CFC6
:101F3000EDFFEF02F3CFEEFFF450ED26010EDB5084
:101F4000D00F186E196AD950020FE96EDACFEAFF86
:101F50001850EE261950ED22DF2AB9D7040EDBCF38
:101F600018F0050EDBCF19F0D950020FE96EDACF69
:101F7000EAFF18C00DF019C00EF0EECF08F0EDCF5B
:101F800009F02BEC11F006C0EEFF07C0EDFF020ECA
:101F9000DBCF18F0030EDBCF19F018C0F3FF19C028
:101FA000F4FF060EE15C02E2E16AE552E16EE55201
:061FB000E7CFD9FF12008B
:0A1FB600C76A110EC86E280EC66E31
:101FC000400EC56E948694889F869E969D86A286B6
:101FD000A196A08606D8A00EE66E70EC11F0E55230
:101FE0001200D9CFE6FFE1CFD9FFE652C950DF6E2C
:101FF000C69AC69EC69CC59CC59A9E96A19601018E
:10200000D86BD36BD46BD76BC68AE552E552E7CF5A
:10201000D9FF12000101D36B1F0EC51403E1C75095
:10202000040B07E00A0E186ED351185CF5E2DBEFE3
:102030000FF01200D9CFE6FFE1CFD9FF020E010168
:10204000D35DFCE3E7DFFE0EDBCFD6F1FD0EDBCF89
:10205000D5F10101D36B010ED86FC580D8510EE0C8
:10206000020E186ED351185C03E2800ED811D76FA0
:10207000D751F4E0C5849FDF000E02D0D36B010E70
:10208000E552E7CFD9FF1200D9CFE6FFE1CFD9FF64
:10209000020E0101D35DFCE3BDDFFE0EDB50010942
:1020A0000101D66FFD0EDBCFD5F1D36B0B0ED86FD0
:1020B000C580D8510EE0020E186ED351185C03E2B1
:1020C000800ED811D76FD751F4E0C58474DF000EAD
:1020D00002D0D36B010EE552E7CFD9FF1200D9CF62
:1020E000E6FFE1CFD9FFE652DF6A060EDF5C13E2BE
:1020F000DF50EA6A9D0FE96E010EEA22EF50E66EAC
:10210000DF50EA6AA30FE96E010EEA22E552E750BA
:10211000EF6EDF2AEAD7060EE66E140EE66E8ADF51
:10212000E552E552E552E552E7CFD9FF1200D9CF8B
:10213000E6FFE1CFD9FFE652DF6A060EDF5C09E277
:10214000DF50EA6A9D0FE96E010EEA22EF6ADF2A8C
:0E215000F4D7C5DFE552E552E7CFD9FF120004
:02215E002A0E47
:10216000F66E080EF76E000EF86E01010900F550CC
:10217000F76F0900F550F86F03E1F76701D03DD024
:102180000900F550F26F0900F550F36F0900F550A2
:10219000F46F09000900F550E96E0900F550EA6E88
:1021A000090009000900F550F56F0900F550F66FB8
:1021B00009000900F6CFF9F1F7CFFAF1F8CFFBF1FA
:1021C000F2C1F6FFF3C1F7FFF4C1F8FF0101F553C7
:1021D00002E1F65307E00900F550EE6EF507F8E26C
:1021E000F607F9D7F9C1F6FFFAC1F7FFFBC1F8FF0F
:0C21F0000101F707000EF85BBFD71200DA
:0421FC0009C013F013
:1022000008C012F008500D02F4CF07F0F3CF06F02B
:1022100009500E02F4CF09F0F3CF08F00D02F3508D
:102220000726F4500822E86A092212500E02F350E1
:102230000726F4500822E86A09220EAE24EF11F0B6
:102240001250085E1350095A13AE000C0D50085E70
:102250000E50095A000C08C012F008500D02F4CFBD
:1022600007F0F3CF06F009500E02F4CF09F0F3CFD8
:1022700008F00D02F3500726F4500822E86A0922FC
:1022800012500E02F3500726F4500822E86A092281
:02229000000C40
:0E229200056A046A100EE76ED8900836093609
:1022A000043605360D50045C0E50055805E30D50FC
:0E22B000045E0E50055A082AE72EF0D71200E1
:0222BE000D0A07
:1022C00000546F70204A756E696F72203320763229
:1022D0002E3231000D0A004D43553A32343230006F
:1022E000FF0EE3501C6E1B0E00D001D0200EE76ED7
:0C22F000E72EFED71C2EFAD700D01200FB
:0422FC0012EE00F0EE
:1023000022EE00F0F86A018CAFEC10F0BBEC07F0A5
:04231000FDD71200E3
:0C23140001019D6B9E6B640E9F6FA06B1F
:0A232000A16BA26B6FEC10F0F5D773
:06232A0000EE00F00F0EB2
:08233000EE6AEA62FDD712001B
:0823380003070B0F1323272BF1
:0A2340002F33010204081020408032
:00000001FF
